:020000040800F2
:100000008004002045010008F509000809090008DE
:100010000D09000865060008991700080000000097
:100020000000000000000000000000007D0C00083F
:100030000907000800000000010B0008B90E0008C5
:100040005F0100085F0100085F0100085F01000810
:100050005F0100085F0100085F0100085F01000800
:100060005F0100085F0100085F0100085F010008F0
:100070005F0100085F0100085F0100085F010008E0
:100080005F0100085F0100085F0100085F010008D0
:100090005F0100085F0100085F0100085F010008C0
:1000A0005F0100085F0100085F0100085F010008B0
:1000B0005F010008991100085F0100085F01000856
:1000C0005F0100085F0100085F0100085F01000890
:1000D0005F010008751500085F0100085F01000856
:1000E0005F0100085F0100085F0100085F01000870
:1000F0005F0100085F0100085F0100085F01000860
:100100005F0100085F0100085F0100085F0100084F
:100110005F0100085F0100085F0100085F0100083F
:100120005F0100085F0100085F0100085F0100082F
:10013000DFF80CD000F084FA00480047FF170008F1
:10014000800400200648804706480047FEE7FEE797
:10015000FEE7FEE7FEE7FEE7FEE7FEE7FEE7FEE777
:10016000F90E0008310100082DE9FE4F804681EAB2
:100170000300C00F0C46009021F0004123F0004521
:10018000B8EB0200A94105D24046214690461C46E4
:100190000B46024623F00040104347D0270DC7F31B
:1001A0000A00C3F30A510290401A019040286BDA0A
:1001B000C3F3130040F4801B0098924620B1002343
:1001C000D2EB030A63EB0B0B01985946C0F14002D6
:1001D000504600F0A7F906460D4650465946019A8A
:1001E00000F0BFF910EB08006141002487EA1152CA
:1001F00084EAE7731A4340D0009A62B3019A012A55
:100200004FEA075215DC001B61EB02014FF0004280
:1002100002EA0752CDE90042001C41F58011324646
:100220002B4600F0BFF903B0BDE8F08F40462146F1
:10023000F9E7001B61EB0201001C41F58013001877
:100240005B412018A2F5001747EB030140EAD57087
:10025000B6196D4111E06D084FEA360645EAC075E2
:100260004FEA0752001B61EB0201001C41F58011AF
:1002700049084FEA30000019514132462B4603B07D
:10028000BDE8F04F00F07FB9009801224000002344
:10029000D0EB020263EBE073009821464FEAE07472
:1002A000B8EB000061EB0401E9E783F000435BE792
:1002B00081F0004158E72DE9FE4F81EA030404F084
:1002C000004421F0004100944FF0000B23F0004364
:1002D00050EA01045ED052EA03045BD0C3F30A542F
:1002E000C1F30A552C44A4F2F3340194A0FB025448
:1002F000C1F3130141F48011C3F3130343F48013DA
:1003000001FB024400FB034E840A970A44EA81542D
:1003100047EA8357A4FB076802958D0A05FB07850A
:100320004FEA932C04FB0C542705029D4FEA065814
:1003300047EA1637B5EB08056EEB070C870E920EF1
:1003400047EA811742EA8312A7FB0201B6EB0B01D1
:1003500064EB00042B0D43EA0C335E1844EB1C5095
:10036000DA465146E7FB0201C5F313044FEA0B33AB
:1003700043EA14534FEA0432019C43EA0603A4F112
:100380000C040294009CCDE900B400F00BF903B01A
:10039000BDE8F08F00200146F9E72DE9F04D81EA34
:1003A000030404F0004B21F0004514464FF0000A0E
:1003B00023F0004150EA050220D054EA01021DD08A
:1003C000C5F30A570246C5F31303C1F31300C1F383
:1003D0000A5640F4801543F48013A7EB0608101B5F
:1003E000D64608F2FD3873EB050002D308F1010888
:1003F00001E092185B41B8F1000F03DA00200146DA
:10040000BDE8F08D00204FF48011064684460EE0D2
:10041000171B73EB050705D3121B63EB050306439C
:100420004CEA010C49084FEA300092185B4150EA4F
:100430000107EDD152EA030012D082EA040083EAF8
:100440000501084305D0101BAB4106D20122002351
:1004500006E000224FF0004302E06FF0010253106B
:100460001AEB06004CEB085110EB0A0041EB0B01B4
:10047000BDE8F04D00F087B80EB5C10F80EAE0701E
:100480000844CA07002140F233438DE80E000A46B3
:100490000B4600F087F803B000BD0EB540F23341C3
:1004A00002910021CDE900110A460B4600F07AF8CE
:1004B00003B000BD70B5C1F30A5201F0004500243D
:1004C000C1F3130140F2FF3341F480119A4201DA83
:1004D000002070BD40F233439A42A2F2334203DC63
:1004E000524200F02EF800E090402C43F1D0404200
:1004F00070BDC1F30A5210B5C1F3130140F2FF33CE
:1005000041F480119A4201DA002010BD40F23343D9
:100510009A42A2F2334203DC524200F012F810BDBC
:10052000904010BD202A04DB203A00FA02F100209E
:1005300070479140C2F1200320FA03F31943904021
:100540007047202A04DB203A21FA02F0002170478C
:1005500021FA02F3D040C2F120029140084319462B
:100560007047202A06DBCB17203A41FA02F043EA13
:10057000E07306E041FA02F3D040C2F1200291405C
:1005800008431946704710B5141E73F1000408DAC9
:10059000401C41F1000192185B411A4301D120F047
:1005A000010010BD2DE9F04D92469B4611B1B1FA04
:1005B00081F202E0B0FA80F220329046FFF7B2FFFB
:1005C00004460F4640EA0A0041EA0B0153465A46E8
:1005D000084313D0114653EA010019D0C8F1400274
:1005E0005046FFF7AEFF05460E4650465946424676
:1005F000FFF798FF084305D0012004E02046394664
:10060000BDE8F08D0020054346EAE0762C433743F1
:100610000A986305E40AA0EB08000022FD0A44EAF8
:1006200047540A3002D500200146E9E701051019B8
:100630006941DDE9084500196941BDE8F04DA2E7CF
:10064000064C074D06E0E06840F0010394E807001F
:1006500098471034AC42F6D3FFF76EFDC01A00087D
:10066000E01A000800BFFEE710B586B0044601217D
:1006700044F2040000F088FA4FF40070ADF8140062
:1006800003208DF8160018208DF8170005A91C48C6
:1006900000F08EF84FF48060ADF8140004208DF85F
:1006A000170005A9164800F083F825208DF80000F2
:1006B00000208DF8010001208DF802008DF8030064
:1006C000684600F099F901940020ADF80800ADF8F3
:1006D0000A00ADF80C00ADF810000C20ADF80E00CB
:1006E00001A9084800F0CCFF012240F2255105483D
:1006F00000F0A1FF0121034800F067FF06B010BD24
:1007000000080140003801407047000000B587B084
:100710000121042000F028FA0121082000F034FA19
:10072000C020ADF8000004208DF8030069461E4883
:1007300000F03EF804A800F013FF0020ADF8100010
:100740004FF48040ADF814000020ADF81600ADF86D
:10075000120004A9154800F0B1FE00231A46032137
:10076000124800F089FD01A800F00EFE0A20ADF845
:100770000C0001A90D4800F0B1FD01210B4800F06B
:1007800069FD01221146094800F007FE00210748D3
:1007900000F065FE0020054924310880012103484E
:1007A00000F05EFD07B000BD000C014000080040F5
:1007B0002DE9F041024600250026002000230024F8
:1007C000002791F803C00CF00F0591F803C00CF05E
:1007D000100CBCF1000F03D091F802C04CEA0505E3
:1007E00091F800C0BCF1000F31D0146800202BE05C
:1007F0004FF0010C0CFA00F3B1F800C00CEA03064C
:100800009E4220D183004FF00F0C0CFA03F7BC433B
:1008100005FA03FC4CEA040491F803C0BCF1280F6C
:1008200006D14FF0010C0CFA00FCC2F814C00AE02B
:1008300091F803C0BCF1480F05D14FF0010C0CFA40
:1008400000FCC2F810C0401C0828D1D31460B1F8D5
:1008500000C0BCF1FF0F34DD546800202EE000F131
:10086000080C4FF0010808FA0CF3B1F800C00CEACC
:1008700003069E4221D183004FF00F0C0CFA03F7C0
:10088000BC4305FA03FC4CEA040491F803C0BCF134
:10089000280F05D100F1080C08FA0CF8C2F81480F2
:1008A00091F803C0BCF1480F07D100F1080C4FF0DC
:1008B000010808FA0CF8C2F81080401C0828CED3B2
:1008C0005460BDE8F0814161704700002DE9F047B8
:1008D00004460A4800F08DFF00EB80004FEA400913
:1008E0004846FFF7C9FD0746054A064BFFF7E3FCFC
:1008F0000546FFF7DFFD2060BDE8F08700080040F7
:100900007FB1AD557199C03F00BFFEE700BFFEE764
:1009100030B589B005460C460121042000F034F9B9
:100920000121022000F020F90121084600F02CF9F5
:100930000121042000F028F90120ADF80400102066
:100940008DF8070003208DF8060001A92748FFF75E
:100950002FFF01212548FFF7B6FF4020ADF8040026
:1009600003208DF8060018208DF8070001A91F4804
:10097000FFF71EFFADF81C50ADF818400020ADF891
:100980001E00ADF81A0006A9194800F097FD602076
:10099000ADF808000020ADF810000120ADF80A0005
:1009A00002A9134800F002FD0821114800F04AFD99
:1009B00001210F4800F042FC012211460C4800F0D2
:1009C000ECFC1D208DF8000001208DF801000320B3
:1009D0008DF8020001208DF80300684600F00CF845
:1009E0000121034800F03CFC09B030BD0008014083
:1009F000000400407047000070B5002100230F2262
:100A0000C47804B3154C246804F4E064C4F5E064CD
:100A1000210AC1F10403CA40447804FA03F184783E
:100A20001440214309010E4C0678A155047804F0C6
:100A30001F050124AC4005786D11AD0005F1E025DE
:100A4000C5F8004109E0047804F01F050124AC401A
:100A5000044D0678761145F8264070BD0CED00E097
:100A600000E400E080E100E002490143024A116035
:100A7000704700000000FA050CED00E000B55120C1
:100A800009490861002048610A2088610748C86058
:100A90000020C88301200877002008844884084685
:100AA00000F0D0FE00BD00004C000020009C0500BE
:100AB000F0B504460D4600210023291BD2E90007AA
:100AC000CF1B166906FB0700566906FB01000227CB
:100AD000566807FB161697683E44976907FB06039E
:100AE0001360506890605160D068984200DAD36813
:100AF000D0684042984201DDD06843429812F0BD70
:100B00007047000010B504460A4800F015F809497E
:100B1000B1F91E102068084420602068002801DA1E
:100B2000002020602068B0F5616F02DD40F60F60A4
:100B3000206010BD4C00002010B50446207F012825
:100B40000AD1B4F92210B4F920002246FFF7B0FF11
:100B5000404200B2E08306E00020E083204600F03F
:100B600071FE0220207710BD29B1064AD2690243E6
:100B7000044BDA6104E0034AD2698243014BDA6133
:100B8000704700000010024029B1064A92690243F2
:100B9000044B9A6104E0034A92698243014B9A61D3
:100BA000704700000010024030B5002100220024F0
:100BB00000232D4D6D6805F00C0121B1042905D0ED
:100BC000082923D105E0294D056022E0274D056065
:100BD0001FE0254D6D6805F47012234D6D6805F416
:100BE0008034022505EB92421CB9214D5543056026
:100BF0000BE01D4D6D6805F400351DB11C4D5543CE
:100C0000056002E0194D5543056002E0174D05608F
:100C100000BF00BF144D6D6805F0F0010909154DC6
:100C20006B5C0568DD4045600F4D6D6805F4E06163
:100C3000090A104D6B5C4568DD4085600A4D6D68A2
:100C400005F46051C90A0B4D6B5C4568DD40C56019
:100C5000054D6D6805F44041890B074D6B5CC56817
:100C6000B5FBF3F5056130BD0010024000127A00BB
:100C700000093D0008000020180000207047000017
:100C800030B589B005460C4601210420FFF77CFFF2
:100C900001210846FFF768FF01210846FFF774FFAE
:100CA0000220ADF8040003208DF8060018208DF80E
:100CB000070001A91548FFF77BFDADF81C50ADF802
:100CC00018400020ADF81E00ADF81A0006A94FF03C
:100CD000804000F0F3FB6020ADF808000020ADF884
:100CE00010000120ADF80A0002A9800700F05EFBA9
:100CF0000821C80600F0A6FB0121880700F09EFA33
:100D00000121880700F0ACFA09B030BD00080140AD
:100D100010B500F001F810BD0CB500200190009056
:100D20003348006840F480303149086000BF3048E3
:100D3000006800F4003000900198401C0190009879
:100D400018B90198B0F5A06FF1D12948006800F4F6
:100D5000003010B10120009001E0002000900098C8
:100D6000012843D12348006840F010002149086061
:100D70000846006820F0030008600846006840F05C
:100D8000020008601A4840681949486008464068EF
:100D900048600846406840F4806048600846406803
:100DA00020F47C1048600846406840F4E810486031
:100DB0000846006840F08070086000BF0C4800687A
:100DC00000F000700028F9D00948406820F00300C6
:100DD000074948600846406840F00200486000BF8C
:100DE0000348406800F00C000828F9D10CBD000051
:100DF00000100240002002402DE9F14F84B0049819
:100E0000FFF74BFB804600220F4BFFF754FA0022FE
:100E10000E4BCDE90001FFF74EFA064600220C4BBF
:100E2000FFF7BBFA044600220A4BFFF79DF9824602
:100E3000FFF75FFB80B202904FF08040029900F014
:100E40000CFB05B0BDE8F08F0000F03F00006940EA
:100E5000008066400000494010B50446094800681B
:100E6000002803DA00200849086002E00120064952
:100E70000860002C00DA0124A1B2044800F0EBFA6B
:100E800010BD000024000020800121420004004029
:100E9000042808D14FF0E021096941F004014FF026
:100EA000E022116107E04FF0E021096921F004011F
:100EB0004FF0E022116170477047000010B5044602
:100EC0006FF00400FFF7E4FFE11704EB5171C1F389
:100ED000C701074A11701046007800EB4001C1EBD2
:100EE000C0104FF6FF7101EAC0000249088010BD32
:100EF000480000204A00002010B51348006840F068
:100F000001001149086008464068104908400E4930
:100F10004860084600680E4908400B4908600846CA
:100F2000006820F4802008600846406820F4FE0035
:100F300048604FF41F008860FFF7EAFE4FF0006042
:100F40000449086010BD0000001002400000FFF8D6
:100F5000FFFFF6FE08ED00E0F0B50C461546002256
:100F60000021068C4FF6FE773E400684028B018CF2
:100F70004FF60C7632407E1C06EA03162E433243AF
:100F8000104EB0420ED0104EB0420BD0B0F1804F98
:100F900008D00E4EB04205D00D4EB04202D00D4EDC
:100FA000B04206D14FF6FD76314044F001063143A0
:100FB00005E04FF6F576314044F0010631430283F7
:100FC0000184F0BD002C01400034014000040040C9
:100FD00000080040000C0040F0B50C461546002209
:100FE00000210026078C4FF6EF7C07EA0C070784E8
:100FF000028B018C4FF6FF7707EA041640F6FF4795
:101000003A404FF6FF7707EA03373A434FF6FF7748
:1010100007EA05273A43114FB8420ED0104FB842A5
:101020000BD0B0F1804F08D00E4FB84205D00E4F14
:10103000B84202D00D4FB84206D14FF6DF773940A3
:1010400046F01007394305E04FF65F77394044F02A
:101050001007394302830184F0BD0000002C0140D9
:10106000003401400004004000080040000C004033
:10107000F0B50C461546002200210026078C4FF6DD
:10108000FF6C07EA0C070784828B018C4FF6FF7711
:1010900007EA04264FF60C773A404FF6FF7707EA47
:1010A00003172F433A43114FB8420ED0104FB842A6
:1010B0000BD0B0F1804F08D00E4FB84205D00E4F84
:1010C000B84202D00D4FB84206D14FF6FF57394013
:1010D00046F48077394305E04FF2FF57394044F436
:1010E0008077394382830184F0BD0000002C0140E9
:1010F000003401400004004000080040000C0040A3
:10110000F0B50C461546002200210026078C4EF64D
:10111000FF7C07EA0C070784828B018C4FF6FF7770
:1011200007EA043640F6FF473A404FF6FF7707EAF2
:1011300005273A434FF6FF7707EA03373A43114F43
:10114000B8420ED0104FB8420BD0B0F1804F08D04B
:101150000E4FB84205D00E4FB84202D00D4FB842E4
:1011600006D14DF6FF77394046F48057394305E004
:1011700047F6FF57394044F480573943828301844E
:10118000F0BD0000002C014000340140000400408C
:1011900000080040000C004010B501211D4800F07F
:1011A0008CF8002834D01C480068401C1A4908609C
:1011B00008460068642827D1002008601748FFF718
:1011C00085FB1748008800B2164908841348008838
:1011D00000B248841448FFF795FC1448037814487B
:1011E000008802B20D48008801B2124800F018FCD5
:1011F0000D480068FFF730FE0F4800680C49086092
:10120000098888B2FFF7F8FD0121024800F025F8AF
:1012100010BD000000040040040000202000002059
:10122000240000204C0000201C0000203000002082
:1012300028000020003801402C00002021B1028845
:1012400042F08002028004E002884FF67F731A4069
:1012500002807047CA4302827047CA4302827047C5
:1012600021B1028842F00102028004E002884FF6B8
:10127000FE731A4002807047F0B50C4615461E46B4
:101280000021002200230189028B038C4FF6F8779E
:10129000394021434FF6FC473A4040F201173A43A8
:1012A0004FF6DD773B404FF6FF7707EA06172F43EF
:1012B0003B43018102830384F0BD30B50246002028
:1012C00000230024158A05EA0103958905EA010433
:1012D00013B10CB1012000E0002030BD70B505460F
:1012E0000C46244885420ED0234885420BD0B5F1E8
:1012F000804F08D02148854205D02148854202D040
:101300002048854200D100E000BF208850B92389E1
:10131000A28861882846FFF71FFEE188284600F072
:10132000A0F825E0208804280AD12389A2886188B2
:101330002846FFF751FEE188284600F09BF817E0A9
:10134000208808280AD12389A28861882846FFF7C7
:101350008FFEE188284600F09AF809E02389A288E8
:1013600061882846FFF7CCFEE188284600F098F80F
:1013700070BD0000002C014000340140000400401A
:1013800000080040000C0040002101804180012144
:1013900081800021C180018170471AB183890B438C
:1013A000838102E083898B438381704770B5002479
:1013B00000220023058C4FF6FE7635400584028C12
:1013C0008388048B4FF68F752C40B51E2C400D88FA
:1013D0002C43751E2A400D892A434D882A43144DFB
:1013E000A8420BD0134DA84208D0134DA84205D0F7
:1013F000124DA84202D0124DA84213D14FF6F775F4
:101400002A404D892A434FF6FB752A408D882A438E
:101410004FF6FF652B404FF6FF552B408D892B4330
:10142000CD892B4383800483CD888586028470BD5B
:10143000002C0140003401400040014000440140C4
:10144000004801400A460021018B4FF6F77319400E
:1014500011430183704781867047018770478184FB
:101460007047028B4FF6F3731A400283028B0A43D4
:1014700002837047028B4FF2FF331A400283028BC4
:101480004FF6FF7303EA01231A4302837047828BEE
:101490004FF6F3731A408283828B0A43828370472C
:1014A000828B4FF2FF331A408283828B4FF6FF7399
:1014B00003EA01231A438283704700000022028856
:1014C0001D4B98420ED01D4B98420BD0B0F1804F6F
:1014D00008D01B4B984205D01A4B984202D01A4BA9
:1014E000984204D14FF68F731A404B881A43174B1A
:1014F000984207D0164B984204D04FF6FF431A404B
:10150000CB881A4302808B8883850B8803850A4B1E
:1015100098420BD0094B984208D00E4B984205D008
:101520000D4B984202D00D4B984201D10B7A0386A5
:101530000123838270470000002C014000340140E9
:101540000004004000080040000C00400010004073
:1015500000140040004001400044014000480140A8
:101560004FF6FF71818000210180C18041800172AE
:101570007047000010B540F22551084800F031F8DE
:1015800050B1074B074A0849044800F061F940F29E
:101590002551024800F00AF810BD00000038014053
:1015A000310000202C0000202400002010B5002273
:1015B000002340F66A14A14200D100BF0A120124A0
:1015C0009440A3B2DC43048010BD21B1828942F46F
:1015D0000052828104E082894DF6FF731A408281B5
:1015E000704770B50246002400230025002040F615
:1015F0006A16B14200D100BFC1F3421501F01F03CA
:10160000012606FA03F3012D02D19689334006E044
:10161000022D02D1168A334001E0968A33400C1223
:10162000012606FA04F41688344013B10CB10120E7
:1016300000E0002070BDF0B5034600240026002520
:10164000002040F66A17B94200D100BF1846C1F326
:10165000421401F01F06012707FA06F5012C01D1FB
:101660000C3004E0022C01D1103000E014301AB12B
:1016700007682F43076002E00768AF430760F0BDCB
:101680002DE9F04786B005460E460024A24600BF6D
:10169000A1460027B08900B100BF2F462C8A4CF626
:1016A000FF700440F08804432C82AC894EF6F3109E
:1016B0000440B08831890843718908430443AC81F0
:1016C000AC8A4FF6FF400440B0890443AC8201A8C5
:1016D000FFF76AFA1F48874202D1DDF810A001E047
:1016E000DDF80CA0A88900F4004040B10AEBCA0064
:1016F00000EB0A1031684900B0FBF1F807E00AEB93
:10170000CA0000EB0A1031688900B0FBF1F86420D0
:10171000B8FBF0F004012009642101FB1089A889BD
:1017200000F4004040B1322000EBC900B0FBF1F002
:1017300000F00700044308E0322000EB09106421A8
:10174000B0FBF1F000F00F0004432C8106B0BDE8BF
:10175000F08700000038014001468888C0F3080087
:101760007047000010B50DE000BF038803F0800350
:10177000002BFAD00B788380491C064B1B685B1C3E
:10178000044C2360034B1B689342EDDB0023014CA8
:10179000236010BD4400002000BFFEE702E008C83F
:1017A000121F08C1002AFAD170477047002001E0DB
:1017B00001C1121F002AFBD1704730B502460B460B
:1017C000002010E012F8014B6040002109E000F019
:1017D00001041CB18C2484EA600000E040104C1C21
:1017E000E1B20829F3DB1C1EA3F10105ABB2E9D17C
:1017F00030BD01468A8C10B200228A84704700BF37
:101800004820FFF75BFB4FF4A060FFF72DF90021A4
:101810004FF46160FFF77CF840F2CF214FF4FA609B
:10182000FFF72EFAFEF772FFFFF728F94FF4165074
:10183000FEF71AFF0020FFF70FFB5A20FFF7DCFA34
:1018400000BFFEE700210160416081607047000039
:101850002DE9F04180460D4616461F4600244046BD
:10186000FFF77AFFC4B263480078112818D1AA2C78
:1018700013D16148007855280ED100205D490870C9
:101880005E4800785E4908705C48407848700020E7
:101890005C4908705C490870AAE057480470A7E0EA
:1018A0005848007830B101280FD002282AD00328E8
:1018B0007ED149E05248847080785449088051486C
:1018C0000078401C4F49087091E04D495048B0F9EC
:1018D0000000C01C0C544E480088401C00B24C490B
:1018E00008800846B0F900004849B1F90010884264
:1018F00007DB00204649088042480078401C4149E7
:10190000087074E04148B0F90000C01C3C490C5418
:101910003E480088C01C81B23948FFF74EFF3A4963
:1019200008703A48B0F90000C01C3549085C3649D7
:101930000978884202D00020BDE8F0813148007863
:10194000401C3049087052E03248008830B93148B4
:101950000088401C00B22F49088046E02D480088CE
:10196000012842D100202B4908801BE02449294846
:10197000B0F90000C01C095C2748264AB2F90020D3
:1019800081541F492348B0F90000401D085C2349D9
:10199000204AB2F9002088541E480088401C00B23A
:1019A0001C4908801B48B0F900000228DEDB00E07B
:1019B0001CE01948B0F9000028601848B0F9000090
:1019C00030600F48C079387000200E4908700A490D
:1019D000087011200749087000200B4908700B4956
:1019E00008800B4908800B49088000E000BF00BF59
:1019F0000020A1E74100002040000020BC1A0008A0
:101A0000700000203B0000203A000020420000202F
:101A10003C0000203E00002036000020380000205E
:101A20002DE9FE4381460E46174698460020009059
:101A30000190029000251D4806801D480780002463
:101A400004E01C48005D0DF80400641C022CF8DB67
:101A500005258DF8025000240AE01448015DE01CC1
:101A60000DF800101248015D601D0DF80010641C97
:101A7000022CF2DBA81C0DF80080E81C81B268463D
:101A8000FFF79BFEE91C0DF801000B480178281DAB
:101A90000DF8001008484178681D0DF800100B2261
:101AA00069464846FFF75EFEBDE8FE83320000202F
:101AB00034000020BC1A0008BE1A000855AA0D0AFE
:101AC000E01A0008000000204C0000009C170008ED
:101AD0002C1B00084C00002034040000AC17000848
:101AE00000000000000000000000000001020304EC
:101AF00001020304060708090204060800000000AA
:101B000000000000000000005A0000005A00000021
:101B100000000000000000000000000000000000C5
:0C1B2000001100000000000000000000A8
:0400000508000131BD
:00000001FF
